:020000040000FA
:10000000C04700104D0100005501000057010000DD
:10001000590100005B0100005D01000000000000CC
:100020000000000000000000000000005F01000070
:1000300061010000000000000B010000A52100008C
:10004000670100006701000067010000A1230000B4
:100050006701000067010000670100006701000000
:1000600067010000670100006701000067010000F0
:1000700067010000670100006701000067010000E0
:1000800067010000670100006701000067010000D0
:1000900067010000670100006701000067010000C0
:1000A000670100006701000067010000ED14000017
:1000B00067010000670100003D15000059150000B0
:1000C0000348854600F0E8FB00480047312B00005C
:1000D000C0470010084B19680868203080F3098871
:1000E000022080F31488BFF36F8F3FBCAE4608BC7C
:1000F00004BC62B61847000098000010EFF31080AF
:1001000072B6704780F310887047EFF309800E4B8A
:100110001A6820381060F0C044464D4656465F4687
:10012000F0C008B572B602F049FD62B60CBC1168A9
:1001300008681030F0C8A046A946B246BB4680F316
:1001400009882038F0C818479800001006488047F2
:1001500006480047FEE7FEE7FEE7FEE7FEE7FEE7AC
:10016000FEE7FEE7FEE7FEE7C9210000C100000050
:1001700030B50B46014600202022012409E00D463F
:10018000D5409D4205D31D469540491B25469540C7
:1001900040191546521E002DF1DC30BD70B500240B
:1001A0002546002801DA01244042002901DA012510
:1001B0004942FFF7DDFFAC4200D04042002C00D0A6
:1001C000494270BDF0B51FB40646002082B0054616
:1001D0004024019100901BE0019922460F463046D1
:1001E00000F08EFA049A059B801A994110D31046AC
:1001F0001946224600F074FA361A8F4101972246BA
:1002000001200021009F00F06BFA38184D4100904A
:100210002046641E0028DFDC019B009829463246F8
:1002200007B0F0BDD2B201E00270401C491EFBD203
:1002300070470022F6E710B513460A4604461946F1
:10024000FFF7F0FF204610BD10B5002200E0521C61
:10025000835C8C5CA34201D1002BF8D1D8B2E1B20F
:10026000401A10BD0FB400B58DB009900B9010A9C5
:1002700000200091C0430A9000200C900648069090
:10028000064807906A4609A80F9900F073FA0DB066
:1002900008BC04B01847000095070000B50700002F
:1002A000FFB50027FF4383B000205C6801909E6883
:1002B0001D46A9697F1C049888470090296A8847D1
:1002C0000028F6D10098401C0CD003204002844343
:1002D000002E19DD600614D500982B2809D02D2892
:1002E0000FD103E00020C04307B0F0BD0120800221
:1002F0000443A9697F1C04988847761E0090002E4D
:1003000002DD0098302803D00598002825D035E07C
:10031000012040020443A969761E7F1C0498884787
:100320000090002E03DD782805D0582803D00598CA
:10033000002810D022E00598002801D010281DD1F7
:10034000012040028443A969761E7F1C04988847D7
:100350000090102002E0082000E00A2005900DE047
:10036000012149020C43059A0199761E5143081850
:100370000190A9697F1C049888470090002E05DD34
:100380000599009800F0E0F90028E9DAE969049895
:100390008847A00502D40120C043A5E7E00722D189
:1003A000600611D56005019800D5404229680A1DF4
:1003B0002A600968220501D5087014E0220701D5DA
:1003C000088010E008600EE02868011D29600068C0
:1003D000210502D50199017005E02107019901D598
:1003E000018000E0016038467EE7FFB5002083B061
:1003F000009050680190916914460026976804980F
:10040000884705460C990698084305D009E0A1697C
:10041000761C049888470546216A284688470028A4
:10042000F5D1681C03D00198C00704D017E0002064
:10043000C04307B0F0BD2068011D21600068009036
:100440000DE00198C00704D1009805700098401C89
:100450000090A169761C7F1E049888470546002FEE
:100460001CDD681C1AD0069800280FD0E817C00EB3
:10047000401941118A0006994009511840012A1A71
:100480000968012090400142DBD107E00C98002868
:10049000D7D1216A284688470028D2D0E16904983C
:1004A00088470C98002807D1002E05DD0198C00769
:1004B00002D1009800210170A068B84204DD0C98B8
:1004C000002804D0002F02D00120C043B1E73046FD
:1004D000AFE70000F0B507460846584087B0C00FA8
:1004E000049048000E46590040084908BC1A88414B
:1004F00005D2384631461E4617460B46024658007E
:10050000400810434CD0300D039040055900400D79
:10051000490D0590401A0290402872DA1803012113
:10052000000B09050843019004980092002805D0AB
:100530000199524200208841009201900298402186
:100540000A1A0199009800F0CBF805460C466B4654
:1005500007CB00F0E6F8C0197141039A0E0D002395
:10056000D71756401A467A40164344D0049A002AB8
:100570002DD0029A012A039A15DC1205C01A914166
:1005800001263605001C7141D20F059ED20700934B
:10059000019202962A46234600F02BF907B0F0BDDF
:1005A00038463146FAE71605224A0F46B218C01AF5
:1005B000B74101210905001C4F4100187F41114638
:1005C00018187941E20F10436D19644113E0E207F6
:1005D0006D0815436408C2071443039A01261205E7
:1005E000C01A91413605001C7141CE0740083043C6
:1005F0004908C01851412A46234600F0EDF8CDE7DE
:10060000FFE7049801224000C117121A00238B4112
:1006100004983146C417381AA141EEE730B40124DA
:10062000E407634030BC55E730B40124E40761407F
:1006300030BC4FE70000E0FF0EB5054902910021F4
:1006400000910A460B46019100F0D3F803B000BDBB
:10065000330400004A0009030123090B1B05194359
:10066000094B10B5520D9A4201DA002010BD064B1D
:1006700034339A4203DC9A1A00F042F810BD034961
:100680005118884010BD0000FF030000CDFBFFFFA4
:1006900010B5002904DB0124E40740428C412146C7
:1006A000002B04DB1C460123DB075242A3418B4293
:1006B00000D1824210BD000010B5002904DB0124E6
:1006C000E40740428C412146002B04DB1C460123F9
:1006D000DB075242A341994200D1904210BD000075
:1006E00010B5202A04DB0146203A9140002010BDBD
:1006F000914020239C1A0346E3401943904010BDCB
:1007000010B5202A04DB0846203AD040002110BD55
:100710000B46D340D0402024A21A914008431946EA
:1007200010BD10B5202A06DBCB170846203A104131
:10073000C1170B4306E00B461341D0402024A21AF8
:1007400091400843194610BD3A2800D23038202382
:1007500002469A43412A01D310463738884201D3D2
:100760000020C043704700000268137851180160F0
:100770001846704710B5D1600449516104491162AF
:1007800000211161114600F0A1F810BD69070000B9
:10079000BD0800004268002A08D001680B78491C97
:1007A000002B03D0521E06C0184670470121C160BD
:1007B000881E70474268002A0BD0C3680168002B6E
:1007C00007D183688B4204D0491E521C06C000200A
:1007D00070470020C043704710B5002B08DA002492
:1007E000401C614192185B411A4301D1400840000E
:1007F00010BDF0B51FB482B005460C0003D008460A
:1008000001F030FE02E001F02DFE203002460090A3
:1008100021462846FFF764FF049B059A04460F46CD
:1008200018431143084314D0184610431BD00098B6
:1008300040210A1A18460599FFF762FF05460E4641
:10084000009A05990498FFF74BFF084305D0012053
:1008500004E02046394607B0F0BD0020C11705432B
:100860000E432C43374300990E986305401A7905CF
:10087000E40A00220C43FD0A0A3002D5002001469A
:10088000E9E70105101969410C9C0D9D00196941AA
:10089000FFF7A2FFDFE70000064C0125064E05E04A
:1008A000E36807CC2B430C3C98471034B442F7D391
:1008B000FFF70AFC582D0000782D000010B50F211D
:1008C000C0B2490200F09EF910BD0000F3B58DB032
:1008D00000200A9001200B90002608460C300C46A0
:1008E00009906269012109989047051E2ED0252D97
:1008F0002DD0216A8847002818D062690121099803
:100900009047216A88470028F7D1411E62690998FB
:10091000904700E0761CA1690D988847216A8847B6
:100920000028F7D1E1690D988847DAE7A1690D98A9
:1009300088470746A84201D1761CD2E7E1690D98A5
:1009400088477F1C02D10A98002877D049E1002708
:1009500062693D463946099890472A280CD1626958
:10096000012109989047012506E00A214F433F18CD
:10097000303FEBD41020054362690121099890476C
:10098000014630390A2903D29B498F42DEDCECE76D
:10099000E90600D4994F6C280AD04C2810D068285A
:1009A00024D06A282ED074280CD07A280AD00DE0E2
:1009B00062690121099890476C2823D004211CE02A
:1009C000202005436269012109989047A76065606E
:1009D00065284FD026DC582839D01ADC452849D064
:1009E00012DC252834D04128B0D143E062690121CE
:1009F00009989047682802D008210D43E6E70120B6
:100A0000C002DEE70220DCE7462833D047282CD19D
:100A100030E05B2870D061282CD063286CD064282B
:100A200023D161E06F284FD009DC662822D06728E7
:100A300020D0692826D06E2817D12EE0CDE070286E
:100A40004DD073286FD075284ED078280DD154E042
:100A5000A1690D9888470546252800D16CE7E16912
:100A60000D9888476D1C00D16DE7BAE00A224CE072
:100A70000A2252E0012023466A46C0430D99C0462F
:100A8000C046A3E02846402108436060A8072346EB
:100A900001D5002239E000223FE0E80700D020E73E
:100AA0002068011D21600068290501D5067018E73E
:100AB000290701D5068014E7A90703D5F1170660B9
:100AC00041600EE706600CE728464021084360605D
:100AD000A807234601D5082217E008221DE048494F
:100AE00028460840606016E02846402108436060C0
:100AF000A8072346BCD5B9E715E02846402108439E
:100B00006060A80707D5234610220120C0430D9935
:100B1000C046C0465AE0234610220120C0430D992A
:100B2000FFF7BEFB52E000210C910B4600916328B9
:100B300002D05B2807D043E0E80601D40120A06082
:100B4000012000903CE062690121099890475E28ED
:100B500005D101200C9001466269099890472169EE
:100B6000002906D10B4601AA8F00491CD351082940
:100B7000FADB002835D0216900290ED1C117C90E32
:100B800009184A11930001AA9A1849094901411A02
:100B900001201368884003431360626901210998AA
:100BA00090475D28E5D10C98002808D0002001ABC3
:100BB00081005A58401CD2435A500828F8DB01AB38
:100BC00001202246C0430D99FFF70FFC00280ADAE6
:100BD000401C06D10B98002803D00020C0430FB062
:100BE000F0BD0A98FBE7E90702D10A99491C0A916E
:100BF000361800200B9074E6CCCCCC0CFFFFFF7FA6
:100C0000F1F7FFFF7F2801D9002207E0054B4208DA
:100C10009A5CC00700D112091207120F0120904000
:100C200008407047182D000038B5684601F076FB83
:100C3000002828D068462049007808600D2801D196
:100C40000A220A600A2834D01C4B00221C490D28B5
:100C500013D024280ED07F2816D00246613A192AD4
:100C600018D92032192A15D91132092A12D9202867
:100C700010D01EE0187001200AE008681A540028FD
:100C800017D001200A6038BD0868002811D0401E26
:100C900008600EE00A68002A0BD00446413C192C7B
:100CA00002D86C4620302070684600789854521C58
:100CB0000A60002038BD000000000440140200104B
:100CC00050000010F0B5344C324F0020BE6A206056
:100CD0002546143560602346286028336860186014
:100CE0005860A060A8609860BC781A462849143201
:100CF000002C10D0072109059160D16000211160FE
:100D00005160116B9B6859435163012189038842EB
:100D10003BD80120F0BD1F4CF707646B6500002F26
:100D200005D01D4801608460416069182046B607FF
:100D300006D5194E14363160B46071606918001917
:100D40001960596013498F6B00219F6011631C6902
:100D500001258D40254209D0166B4D07B6006D0A5E
:100D6000B618B560156B6D1CC0191563491CC9B266
:100D70000829EDD3146B9168A400A418A160146B2A
:100D8000D168A400A418E160B8E70020F0BD00001D
:100D900094020010540000109442001070B5164CDC
:100DA00000202060606021461439206B8968484328
:100DB0006063A06801F00CFB606B104E104D0228C0
:100DC00004D310487062306B68600BE001280ED0CD
:100DD0000720000501F0FCFAC82068600420606369
:100DE000094870623D20A860E068306470BDFF2053
:100DF000913068600548F4E7D042001054000010BC
:100E00000020034021130000C112000099130000CC
:100E1000F8B53E483E4D416B491E416100214022DC
:100E2000C1616A613B4B5A613B4C626141222A615C
:100E30001A612261E960D960E16038494968022697
:100E4000364AB1435160364A5168B143516029680E
:100E50001027B9432960C26A6A60511C0B46A96019
:100E60002C494A608B60016B6160491CA160816AFA
:100E700080780A468243D20708D0284A5368334311
:100E800053600122EA602A683A432A608A0709D53A
:100E900000280BD122484168314341601D4901209F
:100EA000C86024E0890701D0002820D001F0B0FA02
:100EB0001C48806801F08CFA1A48C1681348016424
:100EC000296941208143296112490A6982430A61E3
:100ED00020612068384320601048416831434160F8
:100EE0000120E0600120104980070860F8BD01F092
:100EF00079FA2169412081432161206838432060CB
:100F00002068042188432060ECE7000054000010B2
:100F10000020024000400340002003400010054034
:100F200000000540D042001000E100E0F8B5464B5B
:100F3000464A00200127464EFF0201218140194206
:100F400006D1434C8500803C2C1925683D43256023
:100F5000114204D1810089190C683C430C60401C8B
:100F60002028EAD305252D07EB613A4CE261286A77
:100F7000082108432862206A090308432062206A86
:100F80000F21090508432062072000056061E00287
:100F90002061296A000201432962686101221D2142
:100FA000002001F0EBF901221F21002001F0E6F9F9
:100FB000216A2948014321626061206A274908406B
:100FC0002062234940394A6B254802434A63F1684D
:100FD0000143F1601E4940314A6802434A60296A70
:100FE0000007014329626861216A1E4801432162AA
:100FF000606102221C21002001F0C0F903220221BD
:10100000012001F0BBF903221221012001F0B6F901
:1010100002220621002001F0B1F903221021002054
:1010200001F0ACF903221121002001F0A7F9286A90
:10103000210188432862286A490008432862206AFF
:10104000C91088432062F8BD000303B02CC2FE0023
:10105000802000400010005020000800F7FFFDFF36
:10106000010C000004000400F8B5284C0022E260E6
:101070002748017914230125032909D00179022980
:1010800006D00179012907D00079042817D037E06C
:1010900023606260A26033E0C06B0A2148431D49AF
:1010A00001F0F7F91C4A0023FFF78CF821680422AD
:1010B00091432160102121606060A56020E0174805
:1010C000066A012189038E430662066A0F273F05DF
:1010D0003E430662466B8E434663866B8E43866351
:1010E000C66B0E43C6630D48403006680E4306606B
:1010F00023606260A5602E20606141202061E56070
:101100000120074980070860F8BD00000000024088
:101110005400001080F0FA028096980000100050F1
:1011200000E100E001480079704700005400001021
:10113000014880697047000054000010F8B5574915
:101140000022084643695648CF690668554C14305A
:101150000125BC46002F18D0002E06D0A768378086
:101160004F4E4F4F3668B61C3E600668002E05D0C5
:101170004D4FBF6837800668B61C06606646761C11
:10118000CE615B1E4B613CD083E00F79042F01D10F
:10119000464FFA6041494F78002F2AD04449CB6826
:1011A000002B08D0E368DB06FCD4E3685B07FCD5C2
:1011B000CA600323E3623F4CE368002B09D03A4B3B
:1011C000DF68FF06FCD4DF687F07FCD5E2600322FE
:1011D000DA623D228A60A260002E00D0CD600068F5
:1011E000002800D0E5602D480079042851D12F480F
:1011F0004EE02A49304ECD61F2603D27B760002BAA
:1012000047D12B4BDA602B4FFA603D269E60BE60C3
:1012100022494E6B761E4E61CA6121490A68002A36
:1012200005D0E6687607FCD5A6681680DD60036801
:10123000002B06D01C4AD6687607FCD592681A8027
:10124000FD604A680A604168144E0160B06A032874
:1012500004D80720000501F0BBF806E0104F3C372A
:10126000B86801F0B5F8F868306401F0D1F80320EF
:10127000E0620220606010480169412291430161EF
:10128000016804229143016001681022114301604A
:10129000C5600120094980070860F8BD54000010AE
:1012A000944200100010054000000540000002407C
:1012B00000200240004003400020034080E200E0A4
:1012C00070B5124D0021686B2C46401E383468639F
:1012D000032802D0002802D00EE0A1600CE061607B
:1012E0000B49C82048600320400501F071F8042034
:1012F00068630949074848620848C1684907FCD53E
:10130000A16880680818A06070BD0000D04200107D
:1013100000200340E11300005400001000100540BD
:1013200010B5184C206C01F053F81748426B521E50
:1013300042630168491C0160002A0DD0026B914292
:1013400005D1002101604168491C416001E089002C
:101350000818C068206408E0FF200C4991304860FC
:101360000720000520640A4860620A48C1684907EE
:10137000FCD5816804481438026811800168891C12
:10138000016010BD54000010D04200100020034046
:10139000991300000010054010B50C49C8204860A2
:1013A0000720000501F014F8094904204863084AA1
:1013B00000213832084B0748916058620748C368DB
:1013C0005B07FCD580680818906010BD00200340C2
:1013D000D0420010C112000054000010001005405F
:1013E000F8B52449244E486B244D401E486307D06D
:1013F000E8684007FCD57068A96840187060F8BDBF
:101400001F4F0020F8601F4C206B401CB860FFF796
:10141000C5FC2078401C2070A069A060E8684007E7
:10142000FCD57068A968401870601248143841688B
:10143000016020790126042801D11348C660208D5F
:10144000800712D000F0CEFF208D8007800F022889
:101450000CD10E480021C160016810229143016047
:10146000686802218843686000E0FE600320E8624B
:101470006670F8BDD042001008430010001005400F
:1014800000200340540000100000024000200240F1
:1014900001484078704700005400001001490020C6
:1014A00048707047540000108307FF22DB0E9A40FB
:1014B0008907090E994000280BDA0007000F083849
:1014C000830808489B001818C36993430B43C36102
:1014D0007047830804489B001B1818689043084312
:1014E0001860704700ED00E000E400E011488169F9
:1014F000491C8161C178104A012904D00021016191
:10150000C170817013E003790121022B05D00379AA
:10151000032B08D10223C37009E00369002B03D019
:101520000169491E01617047C3685B1E0361D16098
:1015300070470000540000100000024003490020E2
:101540008860034988600348006A0047001005402E
:101550000000054054000010024900208860024845
:10156000406A004700100540540000100648C1784A
:10157000002902D10179032901D0002070470121FF
:10158000817008467047000054000010F0B58DB01F
:10159000FFF74AFB00286ED09D4E142107A8FEF7E6
:1015A00048FE0BA80AA909AA08AB00930192029170
:1015B000039007AB04AA97A13046FEF753FE0546F9
:1015C000002499A104A8FEF73FFE002847D098A167
:1015D00004A8FEF739FE002843D097A104A8FEF71F
:1015E00033FE00283FD096A104A8FEF72DFE002868
:1015F0003CD096A104A8FEF727FE002839D095A17B
:1016000004A8FEF721FE002836D094A104A8FEF716
:101610001BFE002832D093A104A8FEF715FE002877
:101620002ED092A104A8FEF70FFE00282AD091A187
:1016300004A8FEF709FE002826D090A104A8FEF712
:1016400003FE002822D007AB07CB6C4607C4304608
:10165000002332468BA13F3000F0F0FE20E0012055
:1016600005E0022003E00320052410E00820012407
:101670000DE00C200BE08BE0052008E0062006E0E2
:10168000072004E00B2002E0092000E00A20641C8F
:10169000A54208D000206946C87604AA87A148E080
:1016A0005B483F3072E0030000F00BFF0D7208163C
:1016B000287257485333627477807200022D04D128
:1016C000079800F0FFFC002804D0FFF731FD024628
:1016D0007EA12EE081A059E0079800F0C9FC002807
:1016E000F8D0FFF71FFD042806D100F0FFFC00280A
:1016F000F0D07DA000F034FE83A047E00A9800906F
:1017000007AC0ECC0B9800F07BFC0028E2D082A046
:101710003CE0079800F0BEFC0028DBD0012000F080
:10172000C5FC0028D6D000F0E1FC0028D2D0079AF2
:101730007DA137483F3000F081FEB1E7022000F084
:10174000B5FC0028C6D000F0D1FC0028C2D07DA096
:101750001CE000F00BFD7FA018E0032000F0A6FCC9
:101760000028B7D000F0C2FC0028B3D07CA00DE068
:10177000032000F09BFC0028ACD0FFF7F7FE002808
:10178000A8D000F0B3FC0028A4D079A000F0E8FDB8
:101790000DB0F0BD00F002FBFAE7BFF34F8F7949BF
:1017A0007748C860BFF34F8F00BFFDE7A524764E92
:1017B0002402A00001F0E2F88019054600D5684235
:1017C0000A21FEF7EBFC0F460A212846FEF7E6FC4D
:1017D00003460F4822466DA13F30009700F02EFED1
:1017E0000B483F3000F0BCFDBD200002641D844268
:1017F000DFD96FA000F0B4FD7148026A0121C9036E
:101800000A430262016100BF00BF00BF4161BFE740
:10181000150200102531327320256420256420250F
:10182000642025642025640073657474696D650007
:10183000736574657870000073657461637100008E
:10184000636F6E74696E756F7573000064656275A1
:101850006700000073696E676C65000073746172E5
:101860007400000073746F70000000007265626F96
:101870006F74000067657474656D700076657273CF
:10188000696F6E00244552524F523A20756E73753F
:1018900070706F7274656420257320436D643A25FF
:1018A00030642070303A2530642070313A2530643D
:1018B0002070323A2530640D0A0000000D0A2445DC
:1018C00052524F523A2025730D0A00002454494DBC
:1018D000453A25303130640D0A000000244552524B
:1018E0004F520D0A00000000244F4B3A20457874F7
:1018F00065726E616C54726967204D6F6465207209
:1019000065616479200D0A00244F4B3A2073657499
:101910006578700D0A000000244F4B3A20736574FF
:101920006163710D0A000000244F4B3A20636F6E13
:1019300074696E756F7573202530642075730D0A98
:1019400000000000244F4B3A2073746172740D0A3A
:1019500000000000244F4B3A2073746F700D0A0092
:10196000244F4B3A2073696E676C650D0A000000C6
:10197000244F4B3A2067657474656D700D0A000042
:101980000400FA0500ED00E054F5FFFF61646343D5
:101990006F64653D3078253034782C202454454DD3
:1019A000503D253033642E25303164430D0A00004C
:1019B00050756C73696E67204231352E0D0A000038
:1019C0000010005070470000F8B5044680680028F9
:1019D00060D031A0666800F0C3FC3249226930480B
:1019E000515C01702C214170A2892F4D1204120FFD
:1019F000AA5C8270A28900271205120FAA5CC2702D
:101A0000227B1206120FAA5C0271227B1207120FB0
:101A1000AA5C4271817122891204120FAA5CC27100
:101A200022891205120FAA5C0272227A1206120F84
:101A3000AA5C4272227A1207120FAA5C8272C172E9
:101A4000077300F08DFC1648A46818E0077014486E
:101A500000F086FC318812480A0BAA5C02700A0565
:101A6000120FAA5C42700A06120FAA5C0907827064
:101A7000090F695CC1702C210171401DB61C641EE8
:101A8000E4D20D21401E01700A2141708770044884
:101A900000F066FCF8BD00002442555253543A0051
:101AA000D4010010072D0000082D0000F0B50446F9
:101AB000806889B000287DD027696168089103900B
:101AC0000020012102900A4682403A4202D0029A46
:101AD000521C0292401C0828F5D3002006460690AE
:101AE0000120B04038426ED039A000F039FC3B49AB
:101AF00039488A19927802702C224270A3891B04FB
:101B00001B0FCB5C8370A3891B051B0FCB5CC370C1
:101B1000237B1B061B0FCB5C0371237B1B071B0F57
:101B2000CB5C4371827123891B041B0FCB5CC37197
:101B300023891B051B0FCB5C0372237A1B061B0F2B
:101B4000CB5C4372237A1B071B0FC95C8172C27284
:101B50000021017300F004FC1F48002520E0002153
:101B600001701D4800F0FCFB02980699684340187C
:101B700041000898425A19491748130BCB5C03706F
:101B800013051B0FCB5C437013061B0FCB5C1207B6
:101B90008370120F895CC1702C210171401D6D1C76
:101BA00003998D42DBD30D21401E01700A21417043
:101BB000002101E00AE006E08170074800F0D0FB58
:101BC0000698401C0690761C082E89D309B0F0BDFB
:101BD0002442555253543A00D4010010082D0000FD
:101BE000F0B599B0FFF7A4FA019017A8009016ABD2
:101BF00015AA14A913A800F0A3F9169800F0BEFEC8
:101C0000044619491798484319214904401A7D216F
:101C1000000CC900FEF7ACFA054614480E46201821
:101C2000044600D560420A21FEF7B8FA0F460A21A1
:101C30002046FEF7B3FA0199024602913B4601960F
:101C400000950BA103A800F0F9FB03A800F088FBA6
:101C50001398FFF7B9FE1498FFF7B6FE1598FFF733
:101C600025FF19B0F0BD00006C07000054F5FFFF20
:101C70002454454D503A253033642E253031644389
:101C80002C24564F4C543D253031642E253033647E
:101C9000562C2454494D453D25303130640D0A0001
:101CA0007CB51C4C01A9684600F05CF968460079D7
:101CB00019490009085CA071684600792C230007C7
:101CC000000F085CE071237200220934009D521C51
:101CD0002888AD1C0095050B4D5D257005052D0F61
:101CE0004D5D657005062D0F4D5D0007A570000F59
:101CF000085CE0702371D2B2641D0A2AE6D30D207D
:101D0000641E20700A2060700020A070014800F05E
:101D100027FB7CBD10000010082D000010B5FFF758
:101D2000B7FB002812D0FFF7FDF9012807D00228E1
:101D300008D0032806D0042809D007A008E0FFF740
:101D4000AFFF01E0FFF74CFFFFF7A8FB10BD0DA0B0
:101D500000F006FBF6E700004D6F646520707269C5
:101D60006E742073746174656D656E74206E6F742B
:101D70002079657420696D706C656D656E7465643D
:101D80002E20000045787465726E616C2054726973
:101D900067676572204D6F64650D0A0010B52FA14D
:101DA000304800F04BFB2F4800F0DAFA2EA12D4806
:101DB00000F044FB2B4800F0D3FA37A1294800F08B
:101DC0003DFB284800F0CCFA0124A4072068002835
:101DD00032D033A1234800F031FB224800F0C0FA92
:101DE0002068C00701D035A117E02068800701D521
:101DF00033A112E02068400701D533A10DE020682F
:101E0000000701D533A108E02068C00601D533A141
:101E100003E02068800603D533A1124800F00EFBD2
:101E2000104800F09DFA0EA10E4800F007FB0D4887
:101E300000F096FA002020602DA230A1094800F0A1
:101E4000FDFA084800F08CFA3548426B35A1054888
:101E500000F0F4FA034800F083FA10BD0D0A2D2DAE
:101E60000D0A0000D40100102D2D20244D53473AB7
:101E700020486967682054656D7065726174757279
:101E8000652044656D6F6E7374726174696F6E2046
:101E9000626F6172640D0A002D2D0D0A00000000B2
:101EA0002D2D20244D53473A2052657365742073BD
:101EB0006F75726365203D2000000000504F520096
:101EC0004558545253540000535953525354524599
:101ED000510000004C4F434B5550000057415443B4
:101EE00048444F47000000004D454D455252000008
:101EF0003032303531385F56310000002D2D20242E
:101F00004D53473A204669726D7761726520566578
:101F10007273696F6E203D2025730D0A000000006A
:101F2000C00F00402D2D20244D53473A20435055DB
:101F30004944203D203078253038780D0A000000D3
:101F400030B5074D039C05602846143008601430F6
:101F500010604C30816819604068206030BD00001E
:101F600094420010024A02600248007808707047EC
:101F7000940200105400001010B5074802230361BA
:101F80008F210160054A42600324C4620448036152
:101F900001604260C46210BD000005400202000002
:101FA0000010054010B50F493C230B623D208860AE
:101FB0000D4A136290600D4C2362A0600020C8603F
:101FC000D060E0600B490A4A0A620B4A4A62087113
:101FD000C8700A4B01221A61022214331A61487038
:101FE000887010BD002002400040034000200340E4
:101FF0003D11000054000010211300009442001015
:10200000FFB5174C0746E07881B01E460D46002804
:1020100002D0002005B0F0BD0846124900F039FAA0
:10202000114A0023FEF7CEF8E06230460D4900F079
:1020300030FA0D4A0023FEF7C5F8A7622063039823
:1020400060630A98A06309480A99816001462839AB
:10205000CD601431CD60B908C66001610120D9E7B7
:102060005400001080F0FA0280969800BC420010E4
:1020700000B50749CA78002A01D0002000BD002819
:1020800002D0C860012000BD042000F00FF8F9E77D
:10209000540000100449CA78002A01D0002070477B
:1020A000C863012070470000540000100449CA783A
:1020B000002A01D0002070470871012070470000FD
:1020C000540000100749CA78002A01D00020704748
:1020D0000122054BD2061A608861034880380260ED
:1020E000012070475400001080E100E0F8B51A4C60
:1020F000E07800282AD119490320C8621849C8622B
:10210000184F0025FD603D6120790126030000F095
:10211000D8F9051D040D0D0D0E0096230122642132
:1021200011480096FFF76CFF257000E02561FEF76F
:10213000C9FD00280BD0FEF76BFEFEF72FFEFEF761
:1021400093FFE6702079012802D002E00020F8BD5C
:10215000FE600120F8BD0000540000100010054092
:102160000000054000000240FF0300000A48027919
:10217000012A07D00221022A07D0032A06D0042A06
:1021800004D102E0054A0021D160C1700120044958
:1021900040024861704700005400001000000240F7
:1021A0000010005010B5FDF7A9FF044600F048FDEF
:1021B000002803D001200349000748602046FDF7AE
:1021C000A1FF10BD00ED00E00B490A4808600B4874
:1021D000006B0B4988420BD0002089070860BFF3D1
:1021E0004F8F09490748C860BFF34F8F00BFFDE715
:1021F0007047000080F0FA0200000010C00F00409D
:10220000010740810400FA0500ED00E0FFF7C6FD7C
:10221000FFF7BCF9FFF782FDFAE70000F8B51D48AB
:10222000416B1D4A114341631C4D0024EC601C4866
:10223000C4601C49CC601C4AD4601C4BDC60FF238A
:1022400071330360412606610B600E6113601661F5
:1022500017491E208860164E403630610021FFF776
:1022600023F9144F300638601F20B0600021FFF7BB
:102270001BF9E8043860702028600F486860AC6083
:102280001B20F0600121FFF70FF9F80438600120EE
:10229000E860F8BD4000004005001C00003003402D
:1022A00000200240004003400020034000000240A4
:1022B0000011004000E100E080F0FA0210B5124881
:1022C000104901604160FF31013181600F48642194
:1022D000C1602321090181608168821511438160F9
:1022E0000121816281630A4A03211160094A13684E
:1022F0001B021B0A040323431360074B08221A60C6
:10230000416010BDD4000010040000100000044023
:102310008011004000E400E000E100E030B50D492C
:1023200008230B600C490B4C0D684A68803CAA429C
:1023300004D1002101702360084630BD1578057076
:10234000521C4A608868824201D104484860236078
:10235000012030BD80E100E004000010D400001036
:10236000054904E04B69DB07FCD00A60401C027899
:10237000002AF7D1704700000000044003235B03EC
:1023800052038900002806D00448091808689843B9
:1023900010430860704701488038F6E7802000400D
:1023A00010B5084A08499368106805E00C68047085
:1023B000401C984200D105480C69E407F6D1106032
:1023C00010BD00000400001000000440D400001004
:1023D00003498A6807231B059A4302438A607047B2
:1023E0000010005010B5002211210120FFF7C6FF98
:1023F000002213210120FFF7C1FF01220321104613
:10240000FFF7BCFF012205211046FFF7B7FF10BD03
:1024100010B5002203210120FFF7B0FF00220521A3
:102420000120FFF7ABFF012211211046FFF7A6FFA5
:10243000012213211046FFF7A1FF10BD0FB410B504
:1024400004A9074B02AA039800F058F8044602A911
:10245000002000F08DFA204610BC08BC04B01847DC
:10246000712900002021020C01D010211046020A1F
:1024700001D010460839020901D01046091F820810
:1024800001D01046891E420801D0881E7047081AE4
:102490007047F8B5040C8BB2264682B25E430D0C31
:1024A0001046370C584336048019002179411646EE
:1024B0006E43370C36048019794126466E438919DC
:1024C000F8BD30B47446641E2578641CAB4200D25B
:1024D0001D46635D5B00E31830BC184702E008C886
:1024E000121F08C1002AFAD170477047002001E08E
:1024F00001C1121F002AFBD170470000FFB591B047
:102500000F460546002606E025280AD0149A13999E
:1025100090476D1C761C28780028F5D1304615B000
:10252000F0BD002400940121F34A029400E004432A
:102530006D1C2B780846203B98401042F7D1287834
:102540002A280ED0022128780246303A092A15D8C6
:10255000009A0A235A43303A80180C436D1C0090AD
:10256000F1E701CF0090002805DA01204003044381
:10257000009840420090022004436D1C28782E28C9
:1025800015D10420044368786D1C2A280AD101CF94
:102590006D1C02900BE002990A2251433039401819
:1025A0006D1C02902878014630390929F3D9287822
:1025B0006C2810D006DC4C281AD068280ED06A2867
:1025C00017D104E0742813D07A2812D110E001202A
:1025D000400504430CE00121090501E00321090540
:1025E0000C436978814203D10120000524186D1C39
:1025F0006D1C287803906E281ED00CDC632831D027
:1026000004DC00288AD0582811D1B2E064287BD09D
:1026100069280CD178E073282DD004DC6F2870D0A5
:10262000702804D1A7E075286CD078286BD0149A54
:1026300013999047761C62E06002400F022807D091
:1026400003280AD0042838680AD006603F1D56E0E7
:102650003868F11706604160F8E738680680F5E7EA
:102660000670F3E73878694608740020487404A8B7
:102670000390012003E0386803900020C0433F1D11
:1026800061070FD5002101E00199491C029A0191CF
:10269000914213DA8142F7DB019A0399895C0029A0
:1026A000F2D10BE0002101E00199491C0191814226
:1026B000FADB019A0399895C0029F5D10199009808
:1026C000139A401A00902146149B00F03BF901999F
:1026D0008019461807E0039803990078491C039174
:1026E000149A139990470198401E0190401CF2D112
:1026F0002146149B139A009800F014F986196D1C5A
:1027000009E741E033E034E00A200021049005911C
:102710006002410F022905D001CFC2179446032958
:1027200005D007E0FF1DFF08FF0003CF06E000B261
:10273000C2179446042902D140B2C1178C46002228
:102740006146944506DA0A460021404291418C4692
:102750002D2102E0210504D52B216A4611760121A5
:1027600003E0E10701D02021F7E7019154E00A20BE
:102770000BE0102009E01020049000210420044305
:1027800008200591029003E00820002105910490A3
:102790006002410F022905D001CF0022944603298F
:1027A00006D006E0FF1DFF08FF0003CF8C4603E0C4
:1027B00080B2042900D1C0B20021019121072BD59C
:1027C0000399702906D0049A1021059B4A401A43A8
:1027D00005D00EE040216A461176012108E06146ED
:1027E000014306D030216A461176039951760221C1
:1027F0000191049A0821059B4A401A430CD1614675
:10280000014301D1610707D530216A4611760121C4
:1028100001910299491E02910399582904D037A1C8
:1028200003910FA90F910DE039A1F9E76146059BCE
:10283000049AFDF7C7FC039B8C469B5C0F9A521EC3
:102840000F92137061460143F0D10F9807A9081A3F
:1028500020300390600704D50120000484430298CF
:1028600001E0012002900399884201DD401A00E056
:10287000002041180290019809180098401A009011
:10288000E00306D42146149B139A009800F05AF8EE
:1028900086190020049008E006A9085C149A139990
:1028A00090470498401C761C049001998842F3DB01
:1028B000E0030CD52146149B139A009800F042F8CF
:1028C000861904E0149A302013999047761C0299D7
:1028D000481E02900029F5DC08E00F980F99007857
:1028E000491C0F91149A13999047761C0399481E1E
:1028F00003900029F1DCFBE6092801003031323376
:10290000343536373839616263646566000000002B
:102910003031323334353637383941424344454615
:1029200000000000F8B5044600251E46174688043E
:1029300004D405E039462020B0476D1C641EF9D54B
:102940002846F8BDFFB50446002581B01E46C803E1
:1029500001D5302700E02027880404D505E038465B
:102960000399B0476D1C641EF9D5284605B0F0BD2B
:102970000A68531C0B60107070470000FEB54C4C89
:102980004C4D4D4EFDF758FE4C4A4D4B0191009079
:10299000FDF792FE01D24B48FEBD22462B4601991F
:1029A0000098FDF775FE01D24748FEBD3246474B01
:1029B00001990098FDF76CFE0AD2454F22462B463E
:1029C00001990098FDF72AFEFDF744FE41496BE0AE
:1029D000414C424D22462B4601990098FDF758FE86
:1029E0000AD23F4F3246394B01990098FDF716FE47
:1029F000FDF730FE3B4957E03C4E3B4A33460199D8
:102A00000098FDF745FE0AD2394F22462B46019920
:102A10000098FDF703FEFDF71DFE364944E0364CF5
:102A2000364D22462B4601990098FDF731FE0AD219
:102A3000334F2D4A334601990098FDF7EFFDFDF71E
:102A400009FE304930E0304E304B32460199009853
:102A5000FDF71EFE0AD22E4F22462B460199009802
:102A6000FDF7DCFDFDF7F6FD2A491DE02A4C2B4D54
:102A700022462B4601990098FDF70AFE0AD2284FFC
:102A80003246224B01990098FDF7C8FDFDF7E2FDA3
:102A9000244909E0244F22462B4601990098FDF76E
:102AA000BDFDFDF7D7FD21494843000CC019FEBD0F
:102AB000FE9DA92BE9AE04415E43790D1EC9CF5797
:102AC000CAB007419DE3FFFFBB3100004943054108
:102AD0001C09000091150000C4BACC7831C705412B
:102AE000AC0A0000421800009E48D358F03D064151
:102AF0003C0C0000F21A000028910E8BB8A8064189
:102B0000CC0D0000F71D00009775F3B69E08074135
:102B10005C0F00005E210000A2C6756EE0600741F8
:102B2000EC100000422400007C1200000B28000082
:102B300009490848C863FEF7F9F9FFF76FFBFFF78B
:102B4000BDFBFFF719FAFEF73DFFFFF72BFA002058
:102B5000FFF75CFB3303F001400000400648416B87
:102B60000968002905D0416BC968C9684968816254
:102B700070470021C943FAE7980000104368826853
:102B800001699A60836842685A604A68824201D14A
:102B900082684A60002202610868401E086070472F
:102BA0007047704742684A6093688B6093685960C9
:102BB000916008610168491C0160704710B51D4CA7
:102BC000206B002802D00120E06110BD0020E061F0
:102BD0002068016B18480A68824208D14A6882421C
:102BE00005D18A68824202D1C968814204D0216835
:102BF00020683431FFF7D4FF2069104902E0002833
:102C000015D0401E142242438A58002AF7D01422BD
:102C1000424351184A680B46526808334A609A4248
:102C200001D152684A60D1682160206110BD72B63E
:102C3000FEE7000098000010A5A5A5A51C43001004
:102C4000F8B52F4C0027206B002803D0A069401C4A
:102C5000A0614DE0E668761CE6600ED1606B00680E
:102C6000002801D072B6FEE7606BA16B6163A063C0
:102C7000206A401C2062FFF771FFA06A86420AD3D7
:102C8000606B0068002813D0606BC068C568686816
:102C9000864210D2A06220681421C06A48431949B4
:102CA0000858012800D90127A069002820D021E078
:102CB0000020C043EEE7281DFFF760FFA86A002848
:102CC00003D028461830FFF759FFE86A2169884287
:102CD00000D92061142148430A494018291DFFF7F3
:102CE00061FFE86A2168C96A8842C9D30127C7E73A
:102CF000FFF757FFE069002800D001273846F8BDEC
:102D0000980000101C430010303132333435363710
:102D10003839616263646566DDDDDDDDDCBBBBDD4A
:102D2000DDDDDDDDDDDDDDDD98888888888888886B
:102D3000777777777788888885555556666666668B
:102D4000666666666668888883333332222222226A
:102D5000222222222228888D782D000000000010D7
:102D6000D4000000DC2400004C2E0000D400001031
:102D7000EC460000EC24000080F0FA0200000000A5
:102D8000000000000000000024434F4E543A0000B1
:102D90000000000000000000000000000000000033
:102DA0000000000000000000000000000000000023
:102DB0000000000000000000000000000000000013
:102DC0000000000000000000000000000000000003
:102DD00000000000FFFFFFFF0200000000000000F5
:102DE00000000000000000000000000000000000E3
:102DF00000000000000000000000000000000000D3
:102E000000000000000000000000000000000000C2
:102E100000000000000000000000000000000000B2
:102E200000000000000000000000000000000000A2
:102E30000000000000000000000000000000000092
:0C2E400000000000000000000000000086
:040000050000014DA9
:00000001FF
